{
  "contractName": "WillRegistrar",
  "abi": [
    {
      "inputs": [],
      "stateMutability": "nonpayable",
      "type": "constructor"
    },
    {
      "anonymous": false,
      "inputs": [
        {
          "indexed": true,
          "internalType": "address",
          "name": "previousOwner",
          "type": "address"
        },
        {
          "indexed": true,
          "internalType": "address",
          "name": "newOwner",
          "type": "address"
        }
      ],
      "name": "OwnershipTransferred",
      "type": "event"
    },
    {
      "anonymous": false,
      "inputs": [
        {
          "indexed": true,
          "internalType": "address",
          "name": "from",
          "type": "address"
        },
        {
          "indexed": true,
          "internalType": "address",
          "name": "to",
          "type": "address"
        },
        {
          "indexed": false,
          "internalType": "string",
          "name": "name",
          "type": "string"
        }
      ],
      "name": "TransferWill",
      "type": "event"
    },
    {
      "inputs": [
        {
          "internalType": "address",
          "name": "",
          "type": "address"
        }
      ],
      "name": "WillStatus",
      "outputs": [
        {
          "internalType": "enum WillRegistrar.Status",
          "name": "",
          "type": "uint8"
        }
      ],
      "stateMutability": "view",
      "type": "function",
      "constant": true
    },
    {
      "inputs": [
        {
          "internalType": "address",
          "name": "",
          "type": "address"
        }
      ],
      "name": "getPropertyOwner",
      "outputs": [
        {
          "internalType": "string",
          "name": "testatorName",
          "type": "string"
        },
        {
          "internalType": "string",
          "name": "propertyName",
          "type": "string"
        },
        {
          "internalType": "string",
          "name": "beneficiariry",
          "type": "string"
        },
        {
          "internalType": "address",
          "name": "beneficiariryAddress",
          "type": "address"
        },
        {
          "internalType": "string",
          "name": "registrationDate",
          "type": "string"
        },
        {
          "internalType": "address",
          "name": "ownerAddress",
          "type": "address"
        },
        {
          "internalType": "string",
          "name": "ownerHomeAddress",
          "type": "string"
        }
      ],
      "stateMutability": "view",
      "type": "function",
      "constant": true
    },
    {
      "inputs": [],
      "name": "owner",
      "outputs": [
        {
          "internalType": "address",
          "name": "",
          "type": "address"
        }
      ],
      "stateMutability": "view",
      "type": "function",
      "constant": true
    },
    {
      "inputs": [],
      "name": "renounceOwnership",
      "outputs": [],
      "stateMutability": "nonpayable",
      "type": "function"
    },
    {
      "inputs": [
        {
          "internalType": "address",
          "name": "newOwner",
          "type": "address"
        }
      ],
      "name": "transferOwnership",
      "outputs": [],
      "stateMutability": "nonpayable",
      "type": "function"
    },
    {
      "inputs": [
        {
          "internalType": "address",
          "name": "_to",
          "type": "address"
        },
        {
          "internalType": "string",
          "name": "_newTestatorName",
          "type": "string"
        },
        {
          "internalType": "string",
          "name": "_newBeneficiariry",
          "type": "string"
        },
        {
          "internalType": "address",
          "name": "_newBeneficiariryAddress",
          "type": "address"
        },
        {
          "internalType": "string",
          "name": "_newOwnerHomeAddress",
          "type": "string"
        }
      ],
      "name": "transferWill",
      "outputs": [
        {
          "internalType": "bool",
          "name": "",
          "type": "bool"
        }
      ],
      "stateMutability": "nonpayable",
      "type": "function"
    },
    {
      "inputs": [
        {
          "internalType": "string",
          "name": "_testatorName",
          "type": "string"
        },
        {
          "internalType": "string",
          "name": "_propertName",
          "type": "string"
        },
        {
          "internalType": "string",
          "name": "_beneficiariry",
          "type": "string"
        },
        {
          "internalType": "address",
          "name": "_beneficiariryAddress",
          "type": "address"
        },
        {
          "internalType": "string",
          "name": "_registrationDate",
          "type": "string"
        },
        {
          "internalType": "string",
          "name": "_ownerHomeAddress",
          "type": "string"
        },
        {
          "internalType": "address",
          "name": "_ownerAddress",
          "type": "address"
        }
      ],
      "name": "registerProperty",
      "outputs": [
        {
          "internalType": "bool",
          "name": "",
          "type": "bool"
        }
      ],
      "stateMutability": "nonpayable",
      "type": "function"
    },
    {
      "inputs": [
        {
          "internalType": "address",
          "name": "_ownerAddress",
          "type": "address"
        }
      ],
      "name": "Executor",
      "outputs": [
        {
          "internalType": "bool",
          "name": "",
          "type": "bool"
        }
      ],
      "stateMutability": "nonpayable",
      "type": "function"
    },
    {
      "inputs": [],
      "name": "getAllUsersAddresses",
      "outputs": [
        {
          "internalType": "uint256",
          "name": "",
          "type": "uint256"
        },
        {
          "internalType": "address[]",
          "name": "",
          "type": "address[]"
        }
      ],
      "stateMutability": "view",
      "type": "function",
      "constant": true
    }
  ],
  "bytecode": "0x608060405234801561001057600080fd5b5060006100216100f660201b60201c565b9050806000806101000a81548173ffffffffffffffffffffffffffffffffffffffff021916908373ffffffffffffffffffffffffffffffffffffffff1602179055508073ffffffffffffffffffffffffffffffffffffffff16600073ffffffffffffffffffffffffffffffffffffffff167f8be0079c531659141344cd1fd0a4f28419497f9722a3daafe3b4186f6b6457e060405160405180910390a3506000600560006101000a81548160ff021916908360028111156100de57fe5b0217905550600260009054906101000a9050506100fe565b600033905090565b6124038061010d6000396000f3fe608060405234801561001057600080fd5b50600436106100935760003560e01c80637fbdc84d116100665780637fbdc84d1461061c5780638da5cb5b14610682578063902b41b1146106cc578063db7cdf5414610728578063f2fde38b14610a9757610093565b8063077ffa1f1461009857806308a5be6b1461036b5780633a5aeec3146105ac578063715018a614610612575b600080fd5b6100da600480360360208110156100ae57600080fd5b81019080803573ffffffffffffffffffffffffffffffffffffffff169060200190929190505050610adb565b604051808060200180602001806020018873ffffffffffffffffffffffffffffffffffffffff1673ffffffffffffffffffffffffffffffffffffffff168152602001806020018773ffffffffffffffffffffffffffffffffffffffff1673ffffffffffffffffffffffffffffffffffffffff1681526020018060200186810386528d818151815260200191508051906020019080838360005b8381101561018e578082015181840152602081019050610173565b50505050905090810190601f1680156101bb5780820380516001836020036101000a031916815260200191505b5086810385528c818151815260200191508051906020019080838360005b838110156101f45780820151818401526020810190506101d9565b50505050905090810190601f1680156102215780820380516001836020036101000a031916815260200191505b5086810384528b818151815260200191508051906020019080838360005b8381101561025a57808201518184015260208101905061023f565b50505050905090810190601f1680156102875780820380516001836020036101000a031916815260200191505b50868103835289818151815260200191508051906020019080838360005b838110156102c05780820151818401526020810190506102a5565b50505050905090810190601f1680156102ed5780820380516001836020036101000a031916815260200191505b50868103825287818151815260200191508051906020019080838360005b8381101561032657808201518184015260208101905061030b565b50505050905090810190601f1680156103535780820380516001836020036101000a031916815260200191505b509c5050505050505050505050505060405180910390f35b610592600480360360a081101561038157600080fd5b81019080803573ffffffffffffffffffffffffffffffffffffffff169060200190929190803590602001906401000000008111156103be57600080fd5b8201836020820111156103d057600080fd5b803590602001918460018302840111640100000000831117156103f257600080fd5b91908080601f016020809104026020016040519081016040528093929190818152602001838380828437600081840152601f19601f8201169050808301925050505050505091929192908035906020019064010000000081111561045557600080fd5b82018360208201111561046757600080fd5b8035906020019184600183028401116401000000008311171561048957600080fd5b91908080601f016020809104026020016040519081016040528093929190818152602001838380828437600081840152601f19601f820116905080830192505050505050509192919290803573ffffffffffffffffffffffffffffffffffffffff1690602001909291908035906020019064010000000081111561050c57600080fd5b82018360208201111561051e57600080fd5b8035906020019184600183028401116401000000008311171561054057600080fd5b91908080601f016020809104026020016040519081016040528093929190818152602001838380828437600081840152601f19601f820116905080830192505050505050509192919290505050610e55565b604051808215151515815260200191505060405180910390f35b6105b4611600565b6040518083815260200180602001828103825283818151815260200191508051906020019060200280838360005b838110156105fd5780820151818401526020810190506105e2565b50505050905001935050505060405180910390f35b61061a61177e565b005b61065e6004803603602081101561063257600080fd5b81019080803573ffffffffffffffffffffffffffffffffffffffff169060200190929190505050611906565b6040518082600281111561066e57fe5b60ff16815260200191505060405180910390f35b61068a611926565b604051808273ffffffffffffffffffffffffffffffffffffffff1673ffffffffffffffffffffffffffffffffffffffff16815260200191505060405180910390f35b61070e600480360360208110156106e257600080fd5b81019080803573ffffffffffffffffffffffffffffffffffffffff16906020019092919050505061194f565b604051808215151515815260200191505060405180910390f35b610a7d600480360360e081101561073e57600080fd5b810190808035906020019064010000000081111561075b57600080fd5b82018360208201111561076d57600080fd5b8035906020019184600183028401116401000000008311171561078f57600080fd5b91908080601f016020809104026020016040519081016040528093929190818152602001838380828437600081840152601f19601f820116905080830192505050505050509192919290803590602001906401000000008111156107f257600080fd5b82018360208201111561080457600080fd5b8035906020019184600183028401116401000000008311171561082657600080fd5b91908080601f016020809104026020016040519081016040528093929190818152602001838380828437600081840152601f19601f8201169050808301925050505050505091929192908035906020019064010000000081111561088957600080fd5b82018360208201111561089b57600080fd5b803590602001918460018302840111640100000000831117156108bd57600080fd5b91908080601f016020809104026020016040519081016040528093929190818152602001838380828437600081840152601f19601f820116905080830192505050505050509192919290803573ffffffffffffffffffffffffffffffffffffffff1690602001909291908035906020019064010000000081111561094057600080fd5b82018360208201111561095257600080fd5b8035906020019184600183028401116401000000008311171561097457600080fd5b91908080601f016020809104026020016040519081016040528093929190818152602001838380828437600081840152601f19601f820116905080830192505050505050509192919290803590602001906401000000008111156109d757600080fd5b8201836020820111156109e957600080fd5b80359060200191846001830284011164010000000083111715610a0b57600080fd5b91908080601f016020809104026020016040519081016040528093929190818152602001838380828437600081840152601f19601f820116905080830192505050505050509192919290803573ffffffffffffffffffffffffffffffffffffffff169060200190929190505050611af1565b604051808215151515815260200191505060405180910390f35b610ad960048036036020811015610aad57600080fd5b81019080803573ffffffffffffffffffffffffffffffffffffffff16906020019092919050505061201e565b005b6003602052806000526040600020600091509050806000018054600181600116156101000203166002900480601f016020809104026020016040519081016040528092919081815260200182805460018160011615610100020316600290048015610b875780601f10610b5c57610100808354040283529160200191610b87565b820191906000526020600020905b815481529060010190602001808311610b6a57829003601f168201915b505050505090806001018054600181600116156101000203166002900480601f016020809104026020016040519081016040528092919081815260200182805460018160011615610100020316600290048015610c255780601f10610bfa57610100808354040283529160200191610c25565b820191906000526020600020905b815481529060010190602001808311610c0857829003601f168201915b505050505090806002018054600181600116156101000203166002900480601f016020809104026020016040519081016040528092919081815260200182805460018160011615610100020316600290048015610cc35780601f10610c9857610100808354040283529160200191610cc3565b820191906000526020600020905b815481529060010190602001808311610ca657829003601f168201915b5050505050908060030160009054906101000a900473ffffffffffffffffffffffffffffffffffffffff1690806004018054600181600116156101000203166002900480601f016020809104026020016040519081016040528092919081815260200182805460018160011615610100020316600290048015610d875780601f10610d5c57610100808354040283529160200191610d87565b820191906000526020600020905b815481529060010190602001808311610d6a57829003601f168201915b5050505050908060050160009054906101000a900473ffffffffffffffffffffffffffffffffffffffff1690806006018054600181600116156101000203166002900480601f016020809104026020016040519081016040528092919081815260200182805460018160011615610100020316600290048015610e4b5780601f10610e2057610100808354040283529160200191610e4b565b820191906000526020600020905b815481529060010190602001808311610e2e57829003601f168201915b5050505050905087565b6000600280811115610e6357fe5b600460003373ffffffffffffffffffffffffffffffffffffffff1673ffffffffffffffffffffffffffffffffffffffff16815260200190815260200160002060009054906101000a900460ff166002811115610ebb57fe5b148015610f165750600260009054906101000a900473ffffffffffffffffffffffffffffffffffffffff1673ffffffffffffffffffffffffffffffffffffffff163373ffffffffffffffffffffffffffffffffffffffff1614155b610f1f57600080fd5b600073ffffffffffffffffffffffffffffffffffffffff168673ffffffffffffffffffffffffffffffffffffffff161415610f5957600080fd5b60008090505b6001805490508110156115f2573373ffffffffffffffffffffffffffffffffffffffff1660018281548110610f9057fe5b9060005260206000200160009054906101000a900473ffffffffffffffffffffffffffffffffffffffff1673ffffffffffffffffffffffffffffffffffffffff1614156115e557600360003373ffffffffffffffffffffffffffffffffffffffff1673ffffffffffffffffffffffffffffffffffffffff168152602001908152602001600020600360008973ffffffffffffffffffffffffffffffffffffffff1673ffffffffffffffffffffffffffffffffffffffff1681526020019081526020016000206000820181600001908054600181600116156101000203166002900461107c929190612233565b50600182018160010190805460018160011615610100020316600290046110a4929190612233565b50600282018160020190805460018160011615610100020316600290046110cc929190612233565b506003820160009054906101000a900473ffffffffffffffffffffffffffffffffffffffff168160030160006101000a81548173ffffffffffffffffffffffffffffffffffffffff021916908373ffffffffffffffffffffffffffffffffffffffff1602179055506004820181600401908054600181600116156101000203166002900461115b929190612233565b506005820160009054906101000a900473ffffffffffffffffffffffffffffffffffffffff168160050160006101000a81548173ffffffffffffffffffffffffffffffffffffffff021916908373ffffffffffffffffffffffffffffffffffffffff160217905550600682018160060190805460018160011615610100020316600290046111ea929190612233565b5090505085600360008973ffffffffffffffffffffffffffffffffffffffff1673ffffffffffffffffffffffffffffffffffffffff16815260200190815260200160002060000190805190602001906112449291906122ba565b5084600360008973ffffffffffffffffffffffffffffffffffffffff1673ffffffffffffffffffffffffffffffffffffffff168152602001908152602001600020600201908051906020019061129b9291906122ba565b5083600360008973ffffffffffffffffffffffffffffffffffffffff1673ffffffffffffffffffffffffffffffffffffffff16815260200190815260200160002060030160006101000a81548173ffffffffffffffffffffffffffffffffffffffff021916908373ffffffffffffffffffffffffffffffffffffffff16021790555082600360008973ffffffffffffffffffffffffffffffffffffffff1673ffffffffffffffffffffffffffffffffffffffff16815260200190815260200160002060060190805190602001906113739291906122ba565b5086600360008973ffffffffffffffffffffffffffffffffffffffff1673ffffffffffffffffffffffffffffffffffffffff16815260200190815260200160002060050160006101000a81548173ffffffffffffffffffffffffffffffffffffffff021916908373ffffffffffffffffffffffffffffffffffffffff160217905550600460003373ffffffffffffffffffffffffffffffffffffffff1673ffffffffffffffffffffffffffffffffffffffff16815260200190815260200160002060009054906101000a900460ff16600460008973ffffffffffffffffffffffffffffffffffffffff1673ffffffffffffffffffffffffffffffffffffffff16815260200190815260200160002060006101000a81548160ff0219169083600281111561149c57fe5b0217905550600360003373ffffffffffffffffffffffffffffffffffffffff1673ffffffffffffffffffffffffffffffffffffffff168152602001908152602001600020600080820160006114f1919061233a565b600182016000611501919061233a565b600282016000611511919061233a565b6003820160006101000a81549073ffffffffffffffffffffffffffffffffffffffff0219169055600482016000611548919061233a565b6005820160006101000a81549073ffffffffffffffffffffffffffffffffffffffff021916905560068201600061157f919061233a565b50506001879080600181540180825580915050600190039060005260206000200160009091909190916101000a81548173ffffffffffffffffffffffffffffffffffffffff021916908373ffffffffffffffffffffffffffffffffffffffff1602179055505b8080600101915050610f5f565b506001905095945050505050565b6000606061160c61222b565b73ffffffffffffffffffffffffffffffffffffffff166000809054906101000a900473ffffffffffffffffffffffffffffffffffffffff1673ffffffffffffffffffffffffffffffffffffffff16146116cd576040517f08c379a00000000000000000000000000000000000000000000000000000000081526004018080602001828103825260208152602001807f4f776e61626c653a2063616c6c6572206973206e6f7420746865206f776e657281525060200191505060405180910390fd5b600080905060018054905081116117785760018054905060018080548060200260200160405190810160405280929190818152602001828054801561176757602002820191906000526020600020905b8160009054906101000a900473ffffffffffffffffffffffffffffffffffffffff1673ffffffffffffffffffffffffffffffffffffffff168152602001906001019080831161171d575b50505050509050925092505061177a565b505b9091565b61178661222b565b73ffffffffffffffffffffffffffffffffffffffff166000809054906101000a900473ffffffffffffffffffffffffffffffffffffffff1673ffffffffffffffffffffffffffffffffffffffff1614611847576040517f08c379a00000000000000000000000000000000000000000000000000000000081526004018080602001828103825260208152602001807f4f776e61626c653a2063616c6c6572206973206e6f7420746865206f776e657281525060200191505060405180910390fd5b600073ffffffffffffffffffffffffffffffffffffffff166000809054906101000a900473ffffffffffffffffffffffffffffffffffffffff1673ffffffffffffffffffffffffffffffffffffffff167f8be0079c531659141344cd1fd0a4f28419497f9722a3daafe3b4186f6b6457e060405160405180910390a360008060006101000a81548173ffffffffffffffffffffffffffffffffffffffff021916908373ffffffffffffffffffffffffffffffffffffffff160217905550565b60046020528060005260406000206000915054906101000a900460ff1681565b60008060009054906101000a900473ffffffffffffffffffffffffffffffffffffffff16905090565b60006001600281111561195e57fe5b600460003373ffffffffffffffffffffffffffffffffffffffff1673ffffffffffffffffffffffffffffffffffffffff16815260200190815260200160002060009054906101000a900460ff1660028111156119b657fe5b148015611a5057508173ffffffffffffffffffffffffffffffffffffffff16600360003373ffffffffffffffffffffffffffffffffffffffff1673ffffffffffffffffffffffffffffffffffffffff16815260200190815260200160002060050160009054906101000a900473ffffffffffffffffffffffffffffffffffffffff1673ffffffffffffffffffffffffffffffffffffffff16145b611a5957600080fd5b6002600560006101000a81548160ff02191690836002811115611a7857fe5b0217905550600560009054906101000a900460ff16600460003373ffffffffffffffffffffffffffffffffffffffff1673ffffffffffffffffffffffffffffffffffffffff16815260200190815260200160002060006101000a81548160ff02191690836002811115611ae757fe5b0217905550919050565b6000806002811115611aff57fe5b600460003373ffffffffffffffffffffffffffffffffffffffff1673ffffffffffffffffffffffffffffffffffffffff16815260200190815260200160002060009054906101000a900460ff166002811115611b5757fe5b148015611bc7575060016002811115611b6c57fe5b600460003373ffffffffffffffffffffffffffffffffffffffff1673ffffffffffffffffffffffffffffffffffffffff16815260200190815260200160002060009054906101000a900460ff166002811115611bc457fe5b14155b611bd057600080fd5b600073ffffffffffffffffffffffffffffffffffffffff163373ffffffffffffffffffffffffffffffffffffffff1614158015611c5b5750600260009054906101000a900473ffffffffffffffffffffffffffffffffffffffff1673ffffffffffffffffffffffffffffffffffffffff163373ffffffffffffffffffffffffffffffffffffffff1614155b611c6457600080fd5b87600360003373ffffffffffffffffffffffffffffffffffffffff1673ffffffffffffffffffffffffffffffffffffffff1681526020019081526020016000206000019080519060200190611cba9291906122ba565b5086600360003373ffffffffffffffffffffffffffffffffffffffff1673ffffffffffffffffffffffffffffffffffffffff1681526020019081526020016000206001019080519060200190611d119291906122ba565b5085600360003373ffffffffffffffffffffffffffffffffffffffff1673ffffffffffffffffffffffffffffffffffffffff1681526020019081526020016000206002019080519060200190611d689291906122ba565b5084600360003373ffffffffffffffffffffffffffffffffffffffff1673ffffffffffffffffffffffffffffffffffffffff16815260200190815260200160002060030160006101000a81548173ffffffffffffffffffffffffffffffffffffffff021916908373ffffffffffffffffffffffffffffffffffffffff16021790555083600360003373ffffffffffffffffffffffffffffffffffffffff1673ffffffffffffffffffffffffffffffffffffffff1681526020019081526020016000206004019080519060200190611e409291906122ba565b5082600360003373ffffffffffffffffffffffffffffffffffffffff1673ffffffffffffffffffffffffffffffffffffffff1681526020019081526020016000206006019080519060200190611e979291906122ba565b5081600360003373ffffffffffffffffffffffffffffffffffffffff1673ffffffffffffffffffffffffffffffffffffffff16815260200190815260200160002060050160006101000a81548173ffffffffffffffffffffffffffffffffffffffff021916908373ffffffffffffffffffffffffffffffffffffffff1602179055506001600560006101000a81548160ff02191690836002811115611f3857fe5b0217905550600560009054906101000a900460ff16600460003373ffffffffffffffffffffffffffffffffffffffff1673ffffffffffffffffffffffffffffffffffffffff16815260200190815260200160002060006101000a81548160ff02191690836002811115611fa757fe5b02179055506001339080600181540180825580915050600190039060005260206000200160009091909190916101000a81548173ffffffffffffffffffffffffffffffffffffffff021916908373ffffffffffffffffffffffffffffffffffffffff16021790555060019050979650505050505050565b61202661222b565b73ffffffffffffffffffffffffffffffffffffffff166000809054906101000a900473ffffffffffffffffffffffffffffffffffffffff1673ffffffffffffffffffffffffffffffffffffffff16146120e7576040517f08c379a00000000000000000000000000000000000000000000000000000000081526004018080602001828103825260208152602001807f4f776e61626c653a2063616c6c6572206973206e6f7420746865206f776e657281525060200191505060405180910390fd5b600073ffffffffffffffffffffffffffffffffffffffff168173ffffffffffffffffffffffffffffffffffffffff16141561216d576040517f08c379a00000000000000000000000000000000000000000000000000000000081526004018080602001828103825260268152602001806123a86026913960400191505060405180910390fd5b8073ffffffffffffffffffffffffffffffffffffffff166000809054906101000a900473ffffffffffffffffffffffffffffffffffffffff1673ffffffffffffffffffffffffffffffffffffffff167f8be0079c531659141344cd1fd0a4f28419497f9722a3daafe3b4186f6b6457e060405160405180910390a3806000806101000a81548173ffffffffffffffffffffffffffffffffffffffff021916908373ffffffffffffffffffffffffffffffffffffffff16021790555050565b600033905090565b828054600181600116156101000203166002900490600052602060002090601f016020900481019282601f1061226c57805485556122a9565b828001600101855582156122a957600052602060002091601f016020900482015b828111156122a857825482559160010191906001019061228d565b5b5090506122b69190612382565b5090565b828054600181600116156101000203166002900490600052602060002090601f016020900481019282601f106122fb57805160ff1916838001178555612329565b82800160010185558215612329579182015b8281111561232857825182559160200191906001019061230d565b5b5090506123369190612382565b5090565b50805460018160011615610100020316600290046000825580601f10612360575061237f565b601f01602090049060005260206000209081019061237e9190612382565b5b50565b6123a491905b808211156123a0576000816000905550600101612388565b5090565b9056fe4f776e61626c653a206e6577206f776e657220697320746865207a65726f2061646472657373a2646970667358221220e0dfc2c6c789d4df8230a5659e24aec4ecc43ac9ea61845787f4368fbc01be0b64736f6c63430006020033",
  "source": "// SPDX-License-Identifier: MIT \r\npragma solidity ^0.6.2;\r\n\r\nimport \"node_modules/@openzeppelin/contracts/access/Ownable.sol\";\r\n\r\ncontract WillRegistrar is Ownable{\r\n    \r\n    event TransferWill(address indexed from, address indexed to, string name);\r\n    //array to store UserAddresses\r\n    address []  registeredUsersList;\r\n    \r\n    address private contractOwner;\r\n\r\n    \r\n    //store property against address\r\n    mapping (address => property) public getPropertyOwner;\r\n    \r\n    //check Registration Status\r\n    mapping (address => Status ) public WillStatus;\r\n   \r\n    \r\n    //Registration Status 0/1/2/3 = 4\r\n    enum Status{notRegistered, registeredOnContract, registeredFromExecutor}\r\n    Status registrationStatus;\r\n\r\n    //storing property in array\r\n    struct property{\r\n        string testatorName;\r\n        string propertyName;\r\n        string beneficiariry;\r\n        address beneficiariryAddress;\r\n        string registrationDate;\r\n        address ownerAddress;\r\n        string ownerHomeAddress;\r\n    }\r\n    constructor() public{\r\n        registrationStatus = Status.notRegistered;\r\n        msg.sender == contractOwner;\r\n    }\r\n     //trsnsferWill LAstFunc\r\n    function transferWill(\r\n        address _to, \r\n        string memory _newTestatorName,\r\n        string memory _newBeneficiariry,\r\n        address _newBeneficiariryAddress,\r\n        string memory _newOwnerHomeAddress\r\n        ) \r\n        public returns(bool){\r\n            \r\n         require(WillStatus[msg.sender] == Status.registeredFromExecutor && msg.sender != contractOwner);\r\n         require(_to != address(0));\r\n        \r\n         for(uint i = 0; i <registeredUsersList.length; i++){\r\n             \r\n             if(registeredUsersList[i] == msg.sender){\r\n                \r\n               \r\n                getPropertyOwner[_to] = getPropertyOwner[msg.sender];\r\n                getPropertyOwner[_to].testatorName = _newTestatorName;\r\n                getPropertyOwner[_to].beneficiariry = _newBeneficiariry;\r\n                getPropertyOwner[_to].beneficiariryAddress = _newBeneficiariryAddress;\r\n                getPropertyOwner[_to].ownerHomeAddress = _newOwnerHomeAddress;\r\n                \r\n                getPropertyOwner[_to].ownerAddress = _to;\r\n                WillStatus[_to] = WillStatus[msg.sender];\r\n                delete getPropertyOwner[msg.sender];\r\n                registeredUsersList.push(_to);\r\n                \r\n               // emit TransferWill(msg.sender, _to, _name);\r\n             }\r\n         }\r\n         return true;\r\n         \r\n    }\r\n    \r\n    //registerProperty function \r\n    function registerProperty(\r\n    string memory _testatorName,\r\n    string memory _propertName,\r\n    string memory _beneficiariry,\r\n    address       _beneficiariryAddress,\r\n    string memory _registrationDate,\r\n    string memory _ownerHomeAddress,\r\n    address       _ownerAddress\r\n    )\r\n    public returns(bool) {\r\n        \r\n        require(WillStatus[msg.sender] == Status.notRegistered \r\n        && WillStatus[msg.sender] != Status.registeredOnContract);\r\n        require(msg.sender != address(0) && msg.sender != contractOwner );\r\n       \r\n        getPropertyOwner[msg.sender].testatorName =   _testatorName;\r\n        getPropertyOwner[msg.sender].propertyName =   _propertName;\r\n        getPropertyOwner[msg.sender].beneficiariry =  _beneficiariry;\r\n        getPropertyOwner[msg.sender].beneficiariryAddress =_beneficiariryAddress;\r\n        getPropertyOwner[msg.sender].registrationDate = _registrationDate;\r\n        getPropertyOwner[msg.sender].ownerHomeAddress = _ownerHomeAddress;\r\n        getPropertyOwner[msg.sender].ownerAddress =    _ownerAddress;\r\n        \r\n        \r\n        registrationStatus = Status.registeredOnContract;\r\n        WillStatus[msg.sender] = registrationStatus;\r\n        registeredUsersList.push(msg.sender);\r\n        return true;\r\n        \r\n    }\r\n    \r\n    //Executor \r\n    function Executor(address _ownerAddress) public returns(bool){\r\n            require(WillStatus[msg.sender] == Status.registeredOnContract \r\n            && getPropertyOwner[msg.sender].ownerAddress == _ownerAddress);\r\n            \r\n            registrationStatus = Status.registeredFromExecutor;\r\n             WillStatus[msg.sender] = registrationStatus;\r\n    }\r\n    \r\n    //getAllUsers who are in our contract  address[] memory\r\n    \r\n    function getAllUsersAddresses() onlyOwner public view returns(uint, address[] memory){\r\n        \r\n         for(uint i = 0; i <=registeredUsersList.length ;){\r\n           //return reregisteredUsersList[i];\r\n        \r\n        return (registeredUsersList.length , registeredUsersList);\r\n         }\r\n    }\r\n    \r\n    \r\n}\r\n\r\n",
  "sourcePath": "F:/Personal/Orders/CrushedPapersDapp/Will/contracts/WillRegistrar.sol",
  "compiler": {
    "name": "solc",
    "version": "0.6.2+commit.bacdbe57.Emscripten.clang"
  },
  "schemaVersion": "3.3.3",
  "updatedAt": "2021-01-24T18:38:43.080Z",
  "networkType": "ethereum",
  "devdoc": {
    "methods": {
      "owner()": {
        "details": "Returns the address of the current owner."
      },
      "renounceOwnership()": {
        "details": "Leaves the contract without owner. It will not be possible to call `onlyOwner` functions anymore. Can only be called by the current owner.     * NOTE: Renouncing ownership will leave the contract without an owner, thereby removing any functionality that is only available to the owner."
      },
      "transferOwnership(address)": {
        "details": "Transfers ownership of the contract to a new account (`newOwner`). Can only be called by the current owner."
      }
    }
  },
  "userdoc": {
    "methods": {}
  }
}